{
  "_format": "hh-sol-artifact-1",
  "contractName": "EventCreator",
  "sourceName": "contracts/EventCreator.sol",
  "abi": [
    {
      "inputs": [],
      "stateMutability": "nonpayable",
      "type": "constructor"
    },
    {
      "inputs": [
        {
          "internalType": "address",
          "name": "participant",
          "type": "address"
        }
      ],
      "name": "AlreadyRegistered",
      "type": "error"
    },
    {
      "inputs": [],
      "name": "ReentrancyGuardReentrantCall",
      "type": "error"
    },
    {
      "inputs": [
        {
          "internalType": "uint256",
          "name": "sent",
          "type": "uint256"
        },
        {
          "internalType": "uint256",
          "name": "required",
          "type": "uint256"
        }
      ],
      "name": "TooLow",
      "type": "error"
    },
    {
      "inputs": [
        {
          "internalType": "uint256",
          "name": "sent",
          "type": "uint256"
        },
        {
          "internalType": "uint256",
          "name": "required",
          "type": "uint256"
        }
      ],
      "name": "TooMuch",
      "type": "error"
    },
    {
      "anonymous": false,
      "inputs": [
        {
          "indexed": false,
          "internalType": "address",
          "name": "from",
          "type": "address"
        },
        {
          "indexed": false,
          "internalType": "uint256",
          "name": "amount",
          "type": "uint256"
        },
        {
          "indexed": false,
          "internalType": "bytes",
          "name": "data",
          "type": "bytes"
        }
      ],
      "name": "FallbackTriggered",
      "type": "event"
    },
    {
      "anonymous": false,
      "inputs": [
        {
          "indexed": false,
          "internalType": "uint256",
          "name": "eventId",
          "type": "uint256"
        },
        {
          "indexed": false,
          "internalType": "address",
          "name": "organizer",
          "type": "address"
        }
      ],
      "name": "eventCreated",
      "type": "event"
    },
    {
      "anonymous": false,
      "inputs": [
        {
          "indexed": false,
          "internalType": "uint256",
          "name": "eventId",
          "type": "uint256"
        },
        {
          "indexed": false,
          "internalType": "address",
          "name": "participant",
          "type": "address"
        }
      ],
      "name": "participantRegistered",
      "type": "event"
    },
    {
      "stateMutability": "payable",
      "type": "fallback"
    },
    {
      "inputs": [
        {
          "internalType": "uint256",
          "name": "_eventId",
          "type": "uint256"
        }
      ],
      "name": "closeRegistration",
      "outputs": [],
      "stateMutability": "nonpayable",
      "type": "function"
    },
    {
      "inputs": [
        {
          "internalType": "string",
          "name": "_name",
          "type": "string"
        },
        {
          "internalType": "uint256",
          "name": "_deadline",
          "type": "uint256"
        }
      ],
      "name": "createEvent",
      "outputs": [],
      "stateMutability": "nonpayable",
      "type": "function"
    },
    {
      "inputs": [],
      "name": "defaultMaxParticipants",
      "outputs": [
        {
          "internalType": "uint256",
          "name": "",
          "type": "uint256"
        }
      ],
      "stateMutability": "view",
      "type": "function"
    },
    {
      "inputs": [],
      "name": "defaultRegistrationFee",
      "outputs": [
        {
          "internalType": "uint256",
          "name": "",
          "type": "uint256"
        }
      ],
      "stateMutability": "view",
      "type": "function"
    },
    {
      "inputs": [],
      "name": "eventCount",
      "outputs": [
        {
          "internalType": "uint256",
          "name": "",
          "type": "uint256"
        }
      ],
      "stateMutability": "view",
      "type": "function"
    },
    {
      "inputs": [
        {
          "internalType": "uint256",
          "name": "",
          "type": "uint256"
        }
      ],
      "name": "events",
      "outputs": [
        {
          "internalType": "string",
          "name": "name",
          "type": "string"
        },
        {
          "internalType": "address payable",
          "name": "organizer",
          "type": "address"
        },
        {
          "internalType": "uint256",
          "name": "registrationFee",
          "type": "uint256"
        },
        {
          "internalType": "uint256",
          "name": "maxParticipants",
          "type": "uint256"
        },
        {
          "internalType": "uint256",
          "name": "deadline",
          "type": "uint256"
        },
        {
          "internalType": "bool",
          "name": "isOpen",
          "type": "bool"
        }
      ],
      "stateMutability": "view",
      "type": "function"
    },
    {
      "inputs": [
        {
          "internalType": "uint256",
          "name": "_eventId",
          "type": "uint256"
        }
      ],
      "name": "getParticipants",
      "outputs": [
        {
          "internalType": "address[]",
          "name": "",
          "type": "address[]"
        }
      ],
      "stateMutability": "view",
      "type": "function"
    },
    {
      "inputs": [
        {
          "internalType": "uint256",
          "name": "_eventId",
          "type": "uint256"
        }
      ],
      "name": "openRegistration",
      "outputs": [],
      "stateMutability": "nonpayable",
      "type": "function"
    },
    {
      "inputs": [
        {
          "internalType": "uint256",
          "name": "_eventId",
          "type": "uint256"
        }
      ],
      "name": "register",
      "outputs": [],
      "stateMutability": "payable",
      "type": "function"
    },
    {
      "inputs": [
        {
          "internalType": "uint256",
          "name": "_eventId",
          "type": "uint256"
        }
      ],
      "name": "withdraw",
      "outputs": [],
      "stateMutability": "nonpayable",
      "type": "function"
    },
    {
      "stateMutability": "payable",
      "type": "receive"
    }
  ],
  "bytecode": "0x60c0604052348015600f57600080fd5b506001600081905550600a6080818152505066b1a2bc2ec5000060a0818152505060805160a0516120b56100636000396000818161073c01526107cd0152600081816107f601526108e001526120b56000f3fe6080604052600436106100955760003560e01c80639a4d4385116100595780639a4d4385146102385780639e9ed82114610261578063c1e3bd3e1461028c578063cca84a0c146102c9578063f207564e146102f2576100d5565b80630b7914301461014e5780632e1a7d4d146101905780635e54a140146101b957806371be2e4a146101e257806386e881971461020d576100d5565b366100d5576040517f08c379a00000000000000000000000000000000000000000000000000000000081526004016100cc906110c9565b60405180910390fd5b7f390f97e4a5ab8058ca67d5e2db9310ca12d1e29c64f7eb23dc5f12f1c31e9058333460003660405161010b94939291906111a1565b60405180910390a16040517f08c379a00000000000000000000000000000000000000000000000000000000081526004016101459061122d565b60405180910390fd5b34801561015a57600080fd5b506101756004803603810190610170919061128d565b61030e565b60405161018796959493929190611364565b60405180910390f35b34801561019c57600080fd5b506101b760048036038101906101b2919061128d565b6103ff565b005b3480156101c557600080fd5b506101e060048036038101906101db919061128d565b6105f9565b005b3480156101ee57600080fd5b506101f7610734565b60405161020491906113cc565b60405180910390f35b34801561021957600080fd5b5061022261073a565b60405161022f91906113cc565b60405180910390f35b34801561024457600080fd5b5061025f600480360381019061025a919061150d565b61075e565b005b34801561026d57600080fd5b506102766108de565b60405161028391906113cc565b60405180910390f35b34801561029857600080fd5b506102b360048036038101906102ae919061128d565b610902565b6040516102c09190611627565b60405180910390f35b3480156102d557600080fd5b506102f060048036038101906102eb919061128d565b6109a6565b005b61030c6004803603810190610307919061128d565b610baa565b005b600160205280600052604060002060009150905080600001805461033190611678565b80601f016020809104026020016040519081016040528092919081815260200182805461035d90611678565b80156103aa5780601f1061037f576101008083540402835291602001916103aa565b820191906000526020600020905b81548152906001019060200180831161038d57829003601f168201915b5050505050908060010160009054906101000a900473ffffffffffffffffffffffffffffffffffffffff16908060020154908060030154908060040154908060050160009054906101000a900460ff16905086565b803373ffffffffffffffffffffffffffffffffffffffff166001600083815260200190815260200160002060010160009054906101000a900473ffffffffffffffffffffffffffffffffffffffff1673ffffffffffffffffffffffffffffffffffffffff16146104a4576040517f08c379a000000000000000000000000000000000000000000000000000000000815260040161049b9061171b565b60405180910390fd5b6104ac610ff6565b600060016000848152602001908152602001600020905060004790506000811161050b576040517f08c379a000000000000000000000000000000000000000000000000000000000815260040161050290611787565b60405180910390fd5b6001600085815260200190815260200160002060050160009054906101000a900460ff161561056f576040517f08c379a0000000000000000000000000000000000000000000000000000000008152600401610566906117f3565b60405180910390fd5b8160010160009054906101000a900473ffffffffffffffffffffffffffffffffffffffff1673ffffffffffffffffffffffffffffffffffffffff166108fc829081150290604051600060405180830381858888f193505050501580156105d9573d6000803e3d6000fd5b50600047146105eb576105ea611813565b5b50506105f561103c565b5050565b803373ffffffffffffffffffffffffffffffffffffffff166001600083815260200190815260200160002060010160009054906101000a900473ffffffffffffffffffffffffffffffffffffffff1673ffffffffffffffffffffffffffffffffffffffff161461069e576040517f08c379a00000000000000000000000000000000000000000000000000000000081526004016106959061171b565b60405180910390fd5b6001600083815260200190815260200160002060050160009054906101000a900460ff16610701576040517f08c379a00000000000000000000000000000000000000000000000000000000081526004016106f89061188e565b60405180910390fd5b60006001600084815260200190815260200160002060050160006101000a81548160ff0219169083151502179055505050565b60025481565b7f000000000000000000000000000000000000000000000000000000000000000081565b4281116107a0576040517f08c379a0000000000000000000000000000000000000000000000000000000008152600401610797906118fa565b60405180910390fd5b60006001600060025481526020019081526020016000209050828160000190816107ca9190611ac6565b507f000000000000000000000000000000000000000000000000000000000000000081600201819055507f00000000000000000000000000000000000000000000000000000000000000008160030181905550818160040181905550338160010160006101000a81548173ffffffffffffffffffffffffffffffffffffffff021916908373ffffffffffffffffffffffffffffffffffffffff16021790555060018160050160006101000a81548160ff0219169083151502179055507fe84a9bbfcbf8f5616a5ab8a7bbcccf7ebbefb9d3ff6cdc87f2cfab2d24afabb3600254336040516108b9929190611b98565b60405180910390a1600260008154809291906108d490611bf0565b9190505550505050565b7f000000000000000000000000000000000000000000000000000000000000000081565b60606001600083815260200190815260200160002060060180548060200260200160405190810160405280929190818152602001828054801561099a57602002820191906000526020600020905b8160009054906101000a900473ffffffffffffffffffffffffffffffffffffffff1673ffffffffffffffffffffffffffffffffffffffff1681526020019060010190808311610950575b50505050509050919050565b803373ffffffffffffffffffffffffffffffffffffffff166001600083815260200190815260200160002060010160009054906101000a900473ffffffffffffffffffffffffffffffffffffffff1673ffffffffffffffffffffffffffffffffffffffff1614610a4b576040517f08c379a0000000000000000000000000000000000000000000000000000000008152600401610a429061171b565b60405180910390fd5b6001600083815260200190815260200160002060050160009054906101000a900460ff1615610aaf576040517f08c379a0000000000000000000000000000000000000000000000000000000008152600401610aa690611c84565b60405180910390fd5b60016000838152602001908152602001600020600401544210610b07576040517f08c379a0000000000000000000000000000000000000000000000000000000008152600401610afe90611d16565b60405180910390fd5b6001600083815260200190815260200160002060030154600160008481526020019081526020016000206006018054905010610b78576040517f08c379a0000000000000000000000000000000000000000000000000000000008152600401610b6f90611da8565b60405180910390fd5b600180600084815260200190815260200160002060050160006101000a81548160ff0219169083151502179055505050565b806001600082815260200190815260200160002060050160009054906101000a900460ff16610c0e576040517f08c379a0000000000000000000000000000000000000000000000000000000008152600401610c0590611e14565b60405180910390fd5b60016000828152602001908152602001600020600401544210610c66576040517f08c379a0000000000000000000000000000000000000000000000000000000008152600401610c5d90611ea6565b60405180910390fd5b6001600082815260200190815260200160002060030154600160008381526020019081526020016000206006018054905010610cd7576040517f08c379a0000000000000000000000000000000000000000000000000000000008152600401610cce90611f12565b60405180910390fd5b60006001600084815260200190815260200160002090508060010160009054906101000a900473ffffffffffffffffffffffffffffffffffffffff1673ffffffffffffffffffffffffffffffffffffffff163373ffffffffffffffffffffffffffffffffffffffff1603610d80576040517f08c379a0000000000000000000000000000000000000000000000000000000008152600401610d7790611fa4565b60405180910390fd5b8060070160003373ffffffffffffffffffffffffffffffffffffffff1673ffffffffffffffffffffffffffffffffffffffff16815260200190815260200160002060009054906101000a900460ff1615610e0f576040517f08c379a0000000000000000000000000000000000000000000000000000000008152600401610e0690612036565b60405180910390fd5b8060020154341115610e5e573481600201546040517f6073b21f000000000000000000000000000000000000000000000000000000008152600401610e55929190612056565b60405180910390fd5b8060020154341015610ead573481600201546040517f7e4b4593000000000000000000000000000000000000000000000000000000008152600401610ea4929190612056565b60405180910390fd5b806003015481600601805490501115610ec957610ec8611813565b5b7f3da6104efc8abb8a805057d288f9085655d45d16d4ee8f5ea746cf9af3d0d0a48333604051610efa929190611b98565b60405180910390a160018160070160003373ffffffffffffffffffffffffffffffffffffffff1673ffffffffffffffffffffffffffffffffffffffff16815260200190815260200160002060006101000a81548160ff02191690831515021790555080600601339080600181540180825580915050600190039060005260206000200160009091909190916101000a81548173ffffffffffffffffffffffffffffffffffffffff021916908373ffffffffffffffffffffffffffffffffffffffff1602179055508060030154816006018054905010610ff15760008160050160006101000a81548160ff0219169083151502179055505b505050565b600260005403611032576040517f3ee5aeb500000000000000000000000000000000000000000000000000000000815260040160405180910390fd5b6002600081905550565b6001600081905550565b600082825260208201905092915050565b7f5468697320636f6e747261637420646f6573206e6f742061636365707420457460008201527f6865720000000000000000000000000000000000000000000000000000000000602082015250565b60006110b3602383611046565b91506110be82611057565b604082019050919050565b600060208201905081810360008301526110e2816110a6565b9050919050565b600073ffffffffffffffffffffffffffffffffffffffff82169050919050565b6000611114826110e9565b9050919050565b61112481611109565b82525050565b6000819050919050565b61113d8161112a565b82525050565b600082825260208201905092915050565b82818337600083830152505050565b6000601f19601f8301169050919050565b60006111808385611143565b935061118d838584611154565b61119683611163565b840190509392505050565b60006060820190506111b6600083018761111b565b6111c36020830186611134565b81810360408301526111d6818486611174565b905095945050505050565b7f46616c6c6261636b2046756e6374696f6e000000000000000000000000000000600082015250565b6000611217601183611046565b9150611222826111e1565b602082019050919050565b600060208201905081810360008301526112468161120a565b9050919050565b6000604051905090565b600080fd5b600080fd5b61126a8161112a565b811461127557600080fd5b50565b60008135905061128781611261565b92915050565b6000602082840312156112a3576112a2611257565b5b60006112b184828501611278565b91505092915050565b600081519050919050565b60005b838110156112e35780820151818401526020810190506112c8565b60008484015250505050565b60006112fa826112ba565b6113048185611046565b93506113148185602086016112c5565b61131d81611163565b840191505092915050565b6000611333826110e9565b9050919050565b61134381611328565b82525050565b60008115159050919050565b61135e81611349565b82525050565b600060c082019050818103600083015261137e81896112ef565b905061138d602083018861133a565b61139a6040830187611134565b6113a76060830186611134565b6113b46080830185611134565b6113c160a0830184611355565b979650505050505050565b60006020820190506113e16000830184611134565b92915050565b600080fd5b600080fd5b7f4e487b7100000000000000000000000000000000000000000000000000000000600052604160045260246000fd5b61142982611163565b810181811067ffffffffffffffff82111715611448576114476113f1565b5b80604052505050565b600061145b61124d565b90506114678282611420565b919050565b600067ffffffffffffffff821115611487576114866113f1565b5b61149082611163565b9050602081019050919050565b60006114b06114ab8461146c565b611451565b9050828152602081018484840111156114cc576114cb6113ec565b5b6114d7848285611154565b509392505050565b600082601f8301126114f4576114f36113e7565b5b813561150484826020860161149d565b91505092915050565b6000806040838503121561152457611523611257565b5b600083013567ffffffffffffffff8111156115425761154161125c565b5b61154e858286016114df565b925050602061155f85828601611278565b9150509250929050565b600081519050919050565b600082825260208201905092915050565b6000819050602082019050919050565b61159e81611109565b82525050565b60006115b08383611595565b60208301905092915050565b6000602082019050919050565b60006115d482611569565b6115de8185611574565b93506115e983611585565b8060005b8381101561161a57815161160188826115a4565b975061160c836115bc565b9250506001810190506115ed565b5085935050505092915050565b6000602082019050818103600083015261164181846115c9565b905092915050565b7f4e487b7100000000000000000000000000000000000000000000000000000000600052602260045260246000fd5b6000600282049050600182168061169057607f821691505b6020821081036116a3576116a2611649565b5b50919050565b7f4f6e6c7920746865206f7267616e697a65722063616e20706572666f726d207460008201527f68697320616374696f6e00000000000000000000000000000000000000000000602082015250565b6000611705602a83611046565b9150611710826116a9565b604082019050919050565b60006020820190508181036000830152611734816116f8565b9050919050565b7f4e6f2066756e647320617661696c61626c6520746f2077697468647261772e00600082015250565b6000611771601f83611046565b915061177c8261173b565b602082019050919050565b600060208201905081810360008301526117a081611764565b9050919050565b7f4576656e74206973207374696c6c206f70656e2e000000000000000000000000600082015250565b60006117dd601483611046565b91506117e8826117a7565b602082019050919050565b6000602082019050818103600083015261180c816117d0565b9050919050565b7f4e487b7100000000000000000000000000000000000000000000000000000000600052600160045260246000fd5b7f526567697374726174696f6e20697320616c726561647920636c6f7365642e00600082015250565b6000611878601f83611046565b915061188382611842565b602082019050919050565b600060208201905081810360008301526118a78161186b565b9050919050565b7f446561646c696e65206d75737420626520696e20746865206675747572652e00600082015250565b60006118e4601f83611046565b91506118ef826118ae565b602082019050919050565b60006020820190508181036000830152611913816118d7565b9050919050565b60008190508160005260206000209050919050565b60006020601f8301049050919050565b600082821b905092915050565b60006008830261197c7fffffffffffffffffffffffffffffffffffffffffffffffffffffffffffffffff8261193f565b611986868361193f565b95508019841693508086168417925050509392505050565b6000819050919050565b60006119c36119be6119b98461112a565b61199e565b61112a565b9050919050565b6000819050919050565b6119dd836119a8565b6119f16119e9826119ca565b84845461194c565b825550505050565b600090565b611a066119f9565b611a118184846119d4565b505050565b5b81811015611a3557611a2a6000826119fe565b600181019050611a17565b5050565b601f821115611a7a57611a4b8161191a565b611a548461192f565b81016020851015611a63578190505b611a77611a6f8561192f565b830182611a16565b50505b505050565b600082821c905092915050565b6000611a9d60001984600802611a7f565b1980831691505092915050565b6000611ab68383611a8c565b9150826002028217905092915050565b611acf826112ba565b67ffffffffffffffff811115611ae857611ae76113f1565b5b611af28254611678565b611afd828285611a39565b600060209050601f831160018114611b305760008415611b1e578287015190505b611b288582611aaa565b865550611b90565b601f198416611b3e8661191a565b60005b82811015611b6657848901518255600182019150602085019450602081019050611b41565b86831015611b835784890151611b7f601f891682611a8c565b8355505b6001600288020188555050505b505050505050565b6000604082019050611bad6000830185611134565b611bba602083018461111b565b9392505050565b7f4e487b7100000000000000000000000000000000000000000000000000000000600052601160045260246000fd5b6000611bfb8261112a565b91507fffffffffffffffffffffffffffffffffffffffffffffffffffffffffffffffff8203611c2d57611c2c611bc1565b5b600182019050919050565b7f526567697374726174696f6e20697320616c7265616479206f70656e2e000000600082015250565b6000611c6e601d83611046565b9150611c7982611c38565b602082019050919050565b60006020820190508181036000830152611c9d81611c61565b9050919050565b7f43616e6e6f742072656f70656e3a20446561646c696e6520686173207061737360008201527f65642e0000000000000000000000000000000000000000000000000000000000602082015250565b6000611d00602383611046565b9150611d0b82611ca4565b604082019050919050565b60006020820190508181036000830152611d2f81611cf3565b9050919050565b7f43616e6e6f742072656f70656e3a204d6178207061727469636970616e74732060008201527f726561636865642e000000000000000000000000000000000000000000000000602082015250565b6000611d92602883611046565b9150611d9d82611d36565b604082019050919050565b60006020820190508181036000830152611dc181611d85565b9050919050565b7f526567697374726174696f6e20697320636c6f7365642e000000000000000000600082015250565b6000611dfe601783611046565b9150611e0982611dc8565b602082019050919050565b60006020820190508181036000830152611e2d81611df1565b9050919050565b7f526567697374726174696f6e20646561646c696e65206861732070617373656460008201527f2e00000000000000000000000000000000000000000000000000000000000000602082015250565b6000611e90602183611046565b9150611e9b82611e34565b604082019050919050565b60006020820190508181036000830152611ebf81611e83565b9050919050565b7f4d6178207061727469636970616e747320726561636865642e00000000000000600082015250565b6000611efc601983611046565b9150611f0782611ec6565b602082019050919050565b60006020820190508181036000830152611f2b81611eef565b9050919050565b7f4f7267616e697a65722063616e6e6f7420726567697374657220666f7220746860008201527f656972206f776e206576656e742e000000000000000000000000000000000000602082015250565b6000611f8e602e83611046565b9150611f9982611f32565b604082019050919050565b60006020820190508181036000830152611fbd81611f81565b9050919050565b7f416464726573732068617320616c72656164792072656769737465726564206660008201527f6f722074686973206576656e742e000000000000000000000000000000000000602082015250565b6000612020602e83611046565b915061202b82611fc4565b604082019050919050565b6000602082019050818103600083015261204f81612013565b9050919050565b600060408201905061206b6000830185611134565b6120786020830184611134565b939250505056fea2646970667358221220ce6897a8d1fddc08847b8fec451150846b3ab5d2e43156049c4f6c766d4c92e664736f6c634300081a0033",
  "linkReferences": {},
  "deployedLinkReferences": {}
}